{
  "abi": [
    {
      "inputs": [
        {
          "internalType": "bytes32",
          "name": "_key",
          "type": "bytes32"
        }
      ],
      "name": "deleteAddress",
      "outputs": [],
      "stateMutability": "nonpayable",
      "type": "function"
    },
    {
      "inputs": [
        {
          "internalType": "bytes32",
          "name": "_key",
          "type": "bytes32"
        }
      ],
      "name": "deleteBool",
      "outputs": [],
      "stateMutability": "nonpayable",
      "type": "function"
    },
    {
      "inputs": [
        {
          "internalType": "bytes32",
          "name": "_key",
          "type": "bytes32"
        }
      ],
      "name": "deleteBytes",
      "outputs": [],
      "stateMutability": "nonpayable",
      "type": "function"
    },
    {
      "inputs": [
        {
          "internalType": "bytes32",
          "name": "_key",
          "type": "bytes32"
        }
      ],
      "name": "deleteInt",
      "outputs": [],
      "stateMutability": "nonpayable",
      "type": "function"
    },
    {
      "inputs": [
        {
          "internalType": "bytes32",
          "name": "_key",
          "type": "bytes32"
        }
      ],
      "name": "deleteString",
      "outputs": [],
      "stateMutability": "nonpayable",
      "type": "function"
    },
    {
      "inputs": [
        {
          "internalType": "bytes32",
          "name": "_key",
          "type": "bytes32"
        }
      ],
      "name": "deleteUint",
      "outputs": [],
      "stateMutability": "nonpayable",
      "type": "function"
    },
    {
      "inputs": [
        {
          "internalType": "bytes32",
          "name": "_key",
          "type": "bytes32"
        }
      ],
      "name": "getAddress",
      "outputs": [
        {
          "internalType": "address",
          "name": "",
          "type": "address"
        }
      ],
      "stateMutability": "view",
      "type": "function"
    },
    {
      "inputs": [
        {
          "internalType": "bytes32",
          "name": "_key",
          "type": "bytes32"
        }
      ],
      "name": "getBool",
      "outputs": [
        {
          "internalType": "bool",
          "name": "",
          "type": "bool"
        }
      ],
      "stateMutability": "view",
      "type": "function"
    },
    {
      "inputs": [
        {
          "internalType": "bytes32",
          "name": "_key",
          "type": "bytes32"
        }
      ],
      "name": "getBytes",
      "outputs": [
        {
          "internalType": "bytes",
          "name": "",
          "type": "bytes"
        }
      ],
      "stateMutability": "view",
      "type": "function"
    },
    {
      "inputs": [
        {
          "internalType": "bytes32",
          "name": "_key",
          "type": "bytes32"
        }
      ],
      "name": "getInt",
      "outputs": [
        {
          "internalType": "int256",
          "name": "",
          "type": "int256"
        }
      ],
      "stateMutability": "view",
      "type": "function"
    },
    {
      "inputs": [
        {
          "internalType": "bytes32",
          "name": "_key",
          "type": "bytes32"
        }
      ],
      "name": "getString",
      "outputs": [
        {
          "internalType": "string",
          "name": "",
          "type": "string"
        }
      ],
      "stateMutability": "view",
      "type": "function"
    },
    {
      "inputs": [
        {
          "internalType": "bytes32",
          "name": "_key",
          "type": "bytes32"
        }
      ],
      "name": "getUint",
      "outputs": [
        {
          "internalType": "uint256",
          "name": "",
          "type": "uint256"
        }
      ],
      "stateMutability": "view",
      "type": "function"
    },
    {
      "inputs": [
        {
          "internalType": "bytes32",
          "name": "_key",
          "type": "bytes32"
        },
        {
          "internalType": "address",
          "name": "_value",
          "type": "address"
        }
      ],
      "name": "setAddress",
      "outputs": [],
      "stateMutability": "nonpayable",
      "type": "function"
    },
    {
      "inputs": [
        {
          "internalType": "bytes32",
          "name": "_key",
          "type": "bytes32"
        },
        {
          "internalType": "bool",
          "name": "_value",
          "type": "bool"
        }
      ],
      "name": "setBool",
      "outputs": [],
      "stateMutability": "nonpayable",
      "type": "function"
    },
    {
      "inputs": [
        {
          "internalType": "bytes32",
          "name": "_key",
          "type": "bytes32"
        },
        {
          "internalType": "bytes",
          "name": "_value",
          "type": "bytes"
        }
      ],
      "name": "setBytes",
      "outputs": [],
      "stateMutability": "nonpayable",
      "type": "function"
    },
    {
      "inputs": [
        {
          "internalType": "bytes32",
          "name": "_key",
          "type": "bytes32"
        },
        {
          "internalType": "int256",
          "name": "_value",
          "type": "int256"
        }
      ],
      "name": "setInt",
      "outputs": [],
      "stateMutability": "nonpayable",
      "type": "function"
    },
    {
      "inputs": [
        {
          "internalType": "bytes32",
          "name": "_key",
          "type": "bytes32"
        },
        {
          "internalType": "string",
          "name": "_value",
          "type": "string"
        }
      ],
      "name": "setString",
      "outputs": [],
      "stateMutability": "nonpayable",
      "type": "function"
    },
    {
      "inputs": [
        {
          "internalType": "bytes32",
          "name": "_key",
          "type": "bytes32"
        },
        {
          "internalType": "uint256",
          "name": "_value",
          "type": "uint256"
        }
      ],
      "name": "setUint",
      "outputs": [],
      "stateMutability": "nonpayable",
      "type": "function"
    }
  ],
  "address": "0x7c2C195CD6D34B8F845992d380aADB2730bB9C6F",
  "args": [],
  "bytecode": "0x608060405234801561001057600080fd5b506108fa806100206000396000f3fe608060405234801561001057600080fd5b50600436106101165760003560e01c8063986e791a116100a2578063ca446dd911610071578063ca446dd914610251578063dc97d96214610264578063e2a4853a14610277578063e2b202bf1461028a578063f6bb3cc41461029d57610116565b8063986e791a146101eb578063abfdcced1461020b578063bd02d0f51461021e578063c031a1801461023e57610116565b80633e49bed0116100e95780633e49bed01461017f578063616b59f6146101925780636e899550146101a55780637ae1cfca146101b85780638c160095146101d857610116565b80630e14a3761461011b57806321f8a721146101305780632c62ff2d146101595780632e28d0841461016c575b600080fd5b61012e6101293660046106f3565b6102b0565b005b61014361013e3660046106f3565b6102ce565b6040516101509190610854565b60405180910390f35b61012e6101673660046106f3565b6102e9565b61012e61017a36600461076d565b610301565b61012e61018d3660046107b7565b610320565b61012e6101a03660046106f3565b610332565b61012e6101b33660046107d8565b61034c565b6101cb6101c63660046106f3565b610365565b6040516101509190610868565b61012e6101e63660046106f3565b61037a565b6101fe6101f93660046106f3565b61038b565b6040516101509190610873565b61012e610219366004610745565b610461565b61023161022c3660046106f3565b610481565b604051610150919061088d565b6101fe61024c3660046106f3565b610493565b61012e61025f36600461070b565b61052a565b6102316102723660046106f3565b610558565b61012e6102853660046107b7565b61056a565b61012e6102983660046106f3565b61057c565b61012e6102ab3660046106f3565b61058d565b600090815260026020526040902080546001600160a01b0319169055565b6000908152600260205260409020546001600160a01b031690565b6000908152600360205260409020805460ff19169055565b600083815260056020526040902061031a9083836105d1565b50505050565b60009182526004602052604090912055565b60008181526005602052604081206103499161064f565b50565b600083815260016020526040902061031a9083836105d1565b60009081526003602052604090205460ff1690565b600090815260046020526040812055565b60608160001a60f81b6001600160f81b0319166103c35760405162461bcd60e51b81526004016103ba90610896565b60405180910390fd5b60008281526001602081815260409283902080548451600294821615610100026000190190911693909304601f81018390048302840183019094528383529192908301828280156104555780601f1061042a57610100808354040283529160200191610455565b820191906000526020600020905b81548152906001019060200180831161043857829003601f168201915b50505050509050919050565b600091825260036020526040909120805460ff1916911515919091179055565b60009081526020819052604090205490565b60608160001a60f81b6001600160f81b0319166104c25760405162461bcd60e51b81526004016103ba90610896565b60008281526005602090815260409182902080548351601f6002600019610100600186161502019093169290920491820184900484028101840190945280845290918301828280156104555780601f1061042a57610100808354040283529160200191610455565b60009182526002602052604090912080546001600160a01b0319166001600160a01b03909216919091179055565b60009081526004602052604090205490565b60009182526020829052604090912055565b600090815260208190526040812055565b8060001a60f81b6001600160f81b0319166105ba5760405162461bcd60e51b81526004016103ba90610896565b60008181526001602052604081206103499161064f565b828054600181600116156101000203166002900490600052602060002090601f016020900481019282601f106106125782800160ff1982351617855561063f565b8280016001018555821561063f579182015b8281111561063f578235825591602001919060010190610624565b5061064b92915061068f565b5090565b50805460018160011615610100020316600290046000825580601f106106755750610349565b601f01602090049060005260206000209081019061034991905b6106a991905b8082111561064b5760008155600101610695565b90565b60008083601f8401126106bd578182fd5b50813567ffffffffffffffff8111156106d4578182fd5b6020830191508360208285010111156106ec57600080fd5b9250929050565b600060208284031215610704578081fd5b5035919050565b6000806040838503121561071d578081fd5b8235915060208301356001600160a01b038116811461073a578182fd5b809150509250929050565b60008060408385031215610757578182fd5b823591506020830135801515811461073a578182fd5b600080600060408486031215610781578081fd5b83359250602084013567ffffffffffffffff81111561079e578182fd5b6107aa868287016106ac565b9497909650939450505050565b600080604083850312156107c9578182fd5b50508035926020909101359150565b6000806000604084860312156107ec578283fd5b83359250602084013567ffffffffffffffff81111561079e578283fd5b60008151808452815b8181101561082e57602081850181015186830182015201610812565b8181111561083f5782602083870101525b50601f01601f19169290920160200192915050565b6001600160a01b0391909116815260200190565b901515815260200190565b6000602082526108866020830184610809565b9392505050565b90815260200190565b60208082526014908201527350616e44414f3a205a65726f204164647265737360601b60408201526060019056fea26469706673582212208bbbf3a9bd74f8ea1825be4d984ffbc76477d835286c7c2f8e7b26f32a35937164736f6c63430006060033"
}