{
  "abi": [
    {
      "inputs": [
        {
          "internalType": "address",
          "name": "_eternalStorageAddress",
          "type": "address"
        }
      ],
      "stateMutability": "nonpayable",
      "type": "constructor"
    },
    {
      "anonymous": false,
      "inputs": [
        {
          "indexed": true,
          "internalType": "address",
          "name": "insurancePoolAddress",
          "type": "address"
        },
        {
          "indexed": false,
          "internalType": "string",
          "name": "symbol",
          "type": "string"
        }
      ],
      "name": "InsurancePoolCreated",
      "type": "event"
    },
    {
      "anonymous": false,
      "inputs": [
        {
          "indexed": true,
          "internalType": "address",
          "name": "insurancePoolAddress",
          "type": "address"
        },
        {
          "indexed": false,
          "internalType": "string",
          "name": "symbol",
          "type": "string"
        }
      ],
      "name": "InsurancePoolPaused",
      "type": "event"
    },
    {
      "inputs": [],
      "name": "approveInsuranceClaim",
      "outputs": [],
      "stateMutability": "nonpayable",
      "type": "function"
    },
    {
      "inputs": [
        {
          "internalType": "address",
          "name": "_insuredAssetAddress",
          "type": "address"
        },
        {
          "internalType": "string",
          "name": "_insuredAssetSymbol",
          "type": "string"
        },
        {
          "internalType": "uint256",
          "name": "_insureeFeeRate",
          "type": "uint256"
        },
        {
          "internalType": "uint256",
          "name": "_serviceFeeRate",
          "type": "uint256"
        },
        {
          "internalType": "uint256",
          "name": "_premiumPeriod",
          "type": "uint256"
        }
      ],
      "name": "createInsurancePool",
      "outputs": [],
      "stateMutability": "nonpayable",
      "type": "function"
    },
    {
      "inputs": [],
      "name": "denyInsuranceClaim",
      "outputs": [],
      "stateMutability": "nonpayable",
      "type": "function"
    },
    {
      "inputs": [],
      "name": "eternalStorageAddress",
      "outputs": [
        {
          "internalType": "address",
          "name": "",
          "type": "address"
        }
      ],
      "stateMutability": "view",
      "type": "function"
    },
    {
      "inputs": [],
      "name": "pauseNetwork",
      "outputs": [],
      "stateMutability": "nonpayable",
      "type": "function"
    },
    {
      "inputs": [],
      "name": "updateContractImplementation",
      "outputs": [],
      "stateMutability": "nonpayable",
      "type": "function"
    }
  ],
  "address": "0x8858eeB3DfffA017D4BCE9801D340D36Cf895CCf",
  "args": [
    "0x7c2C195CD6D34B8F845992d380aADB2730bB9C6F"
  ],
  "bytecode": "0x608060405234801561001057600080fd5b506040516138223803806138228339818101604052602081101561003357600080fd5b5051600080546001600160a01b039283166001600160a01b0319918216179182905560018054909116919092161790556137b0806100726000396000f3fe60806040523480156200001157600080fd5b50600436106200006a5760003560e01c80633295f07a146200006f578063384782fe146200007b57806353493d2b146200006f578063536cf19a146200006f5780635b52bd1414620000a1578063a5f20ff2146200006f575b600080fd5b6200007962000168565b005b6200008562000254565b604080516001600160a01b039092168252519081900360200190f35b62000079600480360360a0811015620000b957600080fd5b6001600160a01b038235169190810190604081016020820135640100000000811115620000e557600080fd5b820183602082011115620000f857600080fd5b803590602001918460018302840111640100000000831117156200011b57600080fd5b91908080601f016020809104026020016040519081016040528093929190818152602001838380828437600092019190915250929550508235935050506020810135906040013562000263565b60015460408051808201909152600981526819185bcb9859d95b9d60ba1b602082015233916001600160a01b0316906321f8a72190620001a89062000737565b6040518263ffffffff1660e01b81526004018082815260200191505060206040518083038186803b158015620001dd57600080fd5b505afa158015620001f2573d6000803e3d6000fd5b505050506040513d60208110156200020957600080fd5b50516001600160a01b031614620002525760405162461bcd60e51b8152600401808060200182810382526021815260200180620037356021913960400191505060405180910390fd5b565b6000546001600160a01b031681565b60015460408051808201909152600981526819185bcb9859d95b9d60ba1b602082015233916001600160a01b0316906321f8a72190620002a39062000737565b6040518263ffffffff1660e01b81526004018082815260200191505060206040518083038186803b158015620002d857600080fd5b505afa158015620002ed573d6000803e3d6000fd5b505050506040513d60208110156200030457600080fd5b50516001600160a01b0316146200034d5760405162461bcd60e51b8152600401808060200182810382526021815260200180620037356021913960400191505060405180910390fd5b60015460408051808201909152601081526f636f6e74726163742e6164647265737360801b60208201526000916001600160a01b0316906321f8a72190620003969089620007cc565b6040518263ffffffff1660e01b81526004018082815260200191505060206040518083038186803b158015620003cb57600080fd5b505afa158015620003e0573d6000803e3d6000fd5b505050506040513d6020811015620003f757600080fd5b50516001600160a01b031614620004405760405162461bcd60e51b8152600401808060200182810382526025815260200180620037566025913960400191505060405180910390fd5b60008054604051879187918791879187916001600160a01b03169062000466906200087c565b6001600160a01b038088168252604082018690526060820185905260808201849052821660a082015260c06020808301828152885192840192909252875160e084019189019080838360005b83811015620004cc578181015183820152602001620004b2565b50505050905090810190601f168015620004fa5780820380516001836020036101000a031916815260200191505b50975050505050505050604051809103906000f08015801562000521573d6000803e3d6000fd5b509050600060405162000534906200088a565b604051809103906000f08015801562000551573d6000803e3d6000fd5b509050806001600160a01b031663d784d426836040518263ffffffff1660e01b815260040180826001600160a01b03166001600160a01b03168152602001915050600060405180830381600087803b158015620005ad57600080fd5b505af1158015620005c2573d6000803e3d6000fd5b5050604080516347a76ff160e11b815230600482015290516001600160a01b0385169350638f4edfe29250602480830192600092919082900301818387803b1580156200060e57600080fd5b505af115801562000623573d6000803e3d6000fd5b5050604080516332abba4760e21b815230600482015290516001600160a01b038516935063caaee91c9250602480830192600092919082900301818387803b1580156200066f57600080fd5b505af115801562000684573d6000803e3d6000fd5b50505050816001600160a01b03167fc90b2539b2625e5cecc6e3950434f726117062e7b3042f6ddcb14173d8af9e21876040518080602001828103825283818151815260200191508051906020019080838360005b83811015620006f3578181015183820152602001620006d9565b50505050905090810190601f168015620007215780820380516001836020036101000a031916815260200191505b509250505060405180910390a250505050505050565b6000816040516020018080602001828103825283818151815260200191508051906020019080838360005b838110156200077c57818101518382015260200162000762565b50505050905090810190601f168015620007aa5780820380516001836020036101000a031916815260200191505b5092505050604051602081830303815290604052805190602001209050919050565b600082826040516020018080602001836001600160a01b03166001600160a01b03168152602001828103825284818151815260200191508051906020019080838360005b838110156200082a57818101518382015260200162000810565b50505050905090810190601f168015620008585780820380516001836020036101000a031916815260200191505b50935050505060405160208183030381529060405280519060200120905092915050565b612074806200089983390190565b610e28806200290d8339019056fe60806040523480156200001157600080fd5b506040516200207438038062002074833981016040819052620000349162000d9a565b600080546001600160a01b0319166001600160a01b038381169190911780835560408051808201909152601b81527f696e737572616e63652e706f6f6c2e696e73757265644173736574000000000060208083019190915291909216916321f8a72191620000ae91908b906200049a811b6200032b17901c565b6040518263ffffffff1660e01b8152600401620000cc919062000f94565b60206040518083038186803b158015620000e557600080fd5b505afa158015620000fa573d6000803e3d6000fd5b505050506040513d601f19601f8201168201806040525081019062000120919062000d75565b90506001600160a01b03811615620001555760405162461bcd60e51b81526004016200014c90620010c4565b60405180910390fd5b60008054604080518082018252600d81526c636f6e74726163742e6e616d6560981b6020808301919091528251808401909352600783526626b0b730b3b2b960c91b838201526200024e936001600160a01b031692309284926321f8a72192620001c99291620005a2620004d0821b17901c565b6040518263ffffffff1660e01b8152600401620001e7919062000f94565b60206040518083038186803b1580156200020057600080fd5b505afa15801562000215573d6000803e3d6000fd5b505050506040513d601f19601f820116820180604052508101906200023b919062000d75565b8a8c620004e760201b620005b71760201c565b9050600181151514620002755760405162461bcd60e51b81526004016200014c9062001078565b60008054604080518082018252600d81526c636f6e74726163742e6e616d6560981b6020808301919091528251808401909352600c83526b546f6b656e466163746f727960a01b838201526001600160a01b03909316926321f8a72192620002e79291620005a2620004d0821b17901c565b6040518263ffffffff1660e01b815260040162000305919062000f94565b60206040518083038186803b1580156200031e57600080fd5b505afa15801562000333573d6000803e3d6000fd5b505050506040513d601f19601f8201168201806040525081019062000359919062000d75565b90506060816001600160a01b031663767ad1948a8c306040518463ffffffff1660e01b81526004016200038f9392919062001011565b600060405180830381600087803b158015620003aa57600080fd5b505af1158015620003bf573d6000803e3d6000fd5b505050506040513d6000823e601f3d908101601f19168201604052620003e9919081019062000e65565b9050620004476000809054906101000a90046001600160a01b031630836000815181106200041357fe5b6020026020010151846001815181106200042957fe5b60200260200101518e8e8e8e8e6200081b60201b6200089e1760201c565b7ff2b53aea300726eb804be4b152d7ca3bf5579251ab27ddf42eeb5abc1071f06a308b8b8b8a8c604051620004829695949392919062000f48565b60405180910390a150505050505050505050620011b8565b60008282604051602001620004b192919062000fe5565b6040516020818303038152906040528051906020012090505b92915050565b60008282604051602001620004b192919062001046565b6000856001600160a01b031663ca446dd9620005306040518060400160405280600e81526020016d31b7b73a3930b1ba1737bbb732b960911b815250886200049a60201b60201c565b866040518363ffffffff1660e01b81526004016200055092919062000f9d565b600060405180830381600087803b1580156200056b57600080fd5b505af115801562000580573d6000803e3d6000fd5b50505050856001600160a01b031663ca446dd9620005ca6040518060400160405280600d81526020016c636f6e74726163742e6e616d6560981b81525086620004d060201b60201c565b876040518363ffffffff1660e01b8152600401620005ea92919062000f9d565b600060405180830381600087803b1580156200060557600080fd5b505af11580156200061a573d6000803e3d6000fd5b50505050856001600160a01b031663ca446dd9620006676040518060400160405280601081526020016f636f6e74726163742e6164647265737360801b815250886200049a60201b60201c565b876040518363ffffffff1660e01b81526004016200068792919062000f9d565b600060405180830381600087803b158015620006a257600080fd5b505af1158015620006b7573d6000803e3d6000fd5b50505050856001600160a01b0316636e899550620007116040518060400160405280601381526020017f696e737572616e63652e706f6f6c2e6e616d6500000000000000000000000000815250856200049a60201b60201c565b856040518363ffffffff1660e01b81526004016200073192919062000fb4565b600060405180830381600087803b1580156200074c57600080fd5b505af115801562000761573d6000803e3d6000fd5b50505050856001600160a01b031663ca446dd9620007bb6040518060400160405280601681526020017f696e737572616e63652e706f6f6c2e6164647265737300000000000000000000815250856200049a60201b60201c565b876040518363ffffffff1660e01b8152600401620007db92919062000f9d565b600060405180830381600087803b158015620007f657600080fd5b505af11580156200080b573d6000803e3d6000fd5b5060019998505050505050505050565b886001600160a01b031663ca446dd9620008716040518060400160405280601d81526020017f696e737572616e63652e706f6f6c2e6c6971756964697479546f6b656e000000815250886200049a60201b60201c565b896040518363ffffffff1660e01b81526004016200089192919062000f9d565b600060405180830381600087803b158015620008ac57600080fd5b505af1158015620008c1573d6000803e3d6000fd5b50505050886001600160a01b031663ca446dd96200091b6040518060400160405280601a81526020017f696e737572616e63652e706f6f6c2e636c61696d73546f6b656e000000000000815250886200049a60201b60201c565b886040518363ffffffff1660e01b81526004016200093b92919062000f9d565b600060405180830381600087803b1580156200095657600080fd5b505af11580156200096b573d6000803e3d6000fd5b50505050886001600160a01b031663ca446dd9620009c56040518060400160405280601681526020017f696e737572616e63652e706f6f6c2e6164647265737300000000000000000000815250886200049a60201b60201c565b8a6040518363ffffffff1660e01b8152600401620009e592919062000f9d565b600060405180830381600087803b15801562000a0057600080fd5b505af115801562000a15573d6000803e3d6000fd5b50505050886001600160a01b031663ca446dd962000a6f6040518060400160405280601b81526020017f696e737572616e63652e706f6f6c2e696e737572656441737365740000000000815250886200049a60201b60201c565b876040518363ffffffff1660e01b815260040162000a8f92919062000f9d565b600060405180830381600087803b15801562000aaa57600080fd5b505af115801562000abf573d6000803e3d6000fd5b50505050886001600160a01b0316636e89955062000b006040518060600160405280602181526020016200205360219139886001600160e01b036200049a16565b866040518363ffffffff1660e01b815260040162000b2092919062000fb4565b600060405180830381600087803b15801562000b3b57600080fd5b505af115801562000b50573d6000803e3d6000fd5b50505050886001600160a01b031663e2a4853a62000baa6040518060400160405280601d81526020017f696e737572616e63652e706f6f6c2e696e737572656546656552617465000000815250886200049a60201b60201c565b856040518363ffffffff1660e01b815260040162000bca92919062000fd7565b600060405180830381600087803b15801562000be557600080fd5b505af115801562000bfa573d6000803e3d6000fd5b50505050886001600160a01b031663e2a4853a62000c546040518060400160405280601d81526020017f696e737572616e63652e706f6f6c2e7365727669636546656552617465000000815250886200049a60201b60201c565b846040518363ffffffff1660e01b815260040162000c7492919062000fd7565b600060405180830381600087803b15801562000c8f57600080fd5b505af115801562000ca4573d6000803e3d6000fd5b50505050886001600160a01b031663e2a4853a62000cfe6040518060400160405280601c81526020017f696e737572616e63652e706f6f6c2e7072656d69756d506572696f6400000000815250886200049a60201b60201c565b836040518363ffffffff1660e01b815260040162000d1e92919062000fd7565b600060405180830381600087803b15801562000d3957600080fd5b505af115801562000d4e573d6000803e3d6000fd5b50505050505050505050505050565b80516001600160a01b0381168114620004ca57600080fd5b60006020828403121562000d87578081fd5b62000d93838362000d5d565b9392505050565b60008060008060008060c0878903121562000db3578182fd5b865162000dc0816200119f565b60208801519096506001600160401b0381111562000ddc578283fd5b80880189601f82011262000dee578384fd5b8051915062000e0762000e018362001148565b62001121565b8281528a602084840101111562000e1c578485fd5b62000e2f8360208301602085016200116c565b80975050505060408701519350606087015192506080870151915062000e598860a0890162000d5d565b90509295509295509295565b6000602080838503121562000e78578182fd5b82516001600160401b038082111562000e8f578384fd5b81850186601f82011262000ea1578485fd5b805192508183111562000eb2578485fd5b838302915062000ec484830162001121565b8381528481019082860184840187018a101562000edf578788fd5b8794505b8585101562000f0d5762000ef88a8262000d5d565b83526001949094019391860191860162000ee3565b5098975050505050505050565b6000815180845262000f348160208601602086016200116c565b601f01601f19169290920160200192915050565b6001600160a01b0387811682528616602082015260c06040820181905260009062000f769083018762000f1a565b606083019590955250608081019290925260a0909101529392505050565b90815260200190565b9182526001600160a01b0316602082015260400190565b60008382526040602083015262000fcf604083018462000f1a565b949350505050565b918252602082015260400190565b60006040825262000ffa604083018562000f1a565b905060018060a01b03831660208301529392505050565b60006060825262001026606083018662000f1a565b6001600160a01b0394851660208401529290931660409091015292915050565b6000604082526200105b604083018562000f1a565b82810360208401526200106f818562000f1a565b95945050505050565b6020808252602c908201527f50616e44414f3a204661696c656420746f20696e697469616c697a656420496e60408201526b1cdd5c985b98d948141bdbdb60a21b606082015260800190565b60208082526034908201527f50616e44414f3a20496e737572616e636520506f6f6c20616c7265616479206560408201527f786973747320666f722074686174206173736574000000000000000000000000606082015260800190565b6040518181016001600160401b03811182821017156200114057600080fd5b604052919050565b60006001600160401b038211156200115e578081fd5b50601f01601f191660200190565b60005b83811015620011895781810151838201526020016200116f565b8381111562001199576000848401525b50505050565b6001600160a01b0381168114620011b557600080fd5b50565b610e8b80620011c86000396000f3fe6080604052600436106100705760003560e01c806371618c791161004e57806371618c791461007557806377963eba14610075578063e4a767261461008c578063f2e99ff61461007557610070565b8063372500ab14610075578063590aea7d1461007557806367b9a28614610075575b600080fd5b34801561008157600080fd5b5061008a61009f565b005b61008a61009a36600461043e565b6100a1565b565b6000805460408051808201909152601d81527f696e737572616e63652e706f6f6c2e6c6971756964697479546f6b656e00000060208201526001600160a01b03909116906321f8a721906100f5908761032b565b6040518263ffffffff1660e01b8152600401610111919061051d565b60206040518083038186803b15801561012957600080fd5b505afa15801561013d573d6000803e3d6000fd5b505050506040513d601f19601f82011682018060405250810190610161919061041b565b6040516323b872dd60e01b8152909150819085906001600160a01b038216906323b872dd90610198908890309089906004016104e0565b602060405180830381600087803b1580156101b257600080fd5b505af11580156101c6573d6000803e3d6000fd5b505050506040513d601f19601f820116820180604052508101906101ea919061047e565b506040516340c10f1960e01b81526001600160a01b038316906340c10f19906102199088908890600401610504565b600060405180830381600087803b15801561023357600080fd5b505af1158015610247573d6000803e3d6000fd5b505060405163e1f21c6760e01b81526001600160a01b038516925063e1f21c67915061027b908890309089906004016104e0565b602060405180830381600087803b15801561029557600080fd5b505af11580156102a9573d6000803e3d6000fd5b505050506040513d601f19601f820116820180604052508101906102cd919061047e565b506000546102e6906001600160a01b031687878761035e565b7fceda01f47547afec2949bd277d7d21f0d2f67da7b671bd8a8451f7b41846abf03087878760405161031b94939291906104b6565b60405180910390a1505050505050565b60008282604051602001610340929190610526565b60405160208183030381529060405280519060200120905092915050565b6000846001600160a01b031663bd02d0f56103a760405180604001604052806016815260200175696e737572616e63652e706f6f6c2e62616c616e636560501b8152508761032b565b6040518263ffffffff1660e01b81526004016103c3919061051d565b60206040518083038186803b1580156103db57600080fd5b505afa1580156103ef573d6000803e3d6000fd5b505050506040513d601f19601f82011682018060405250810190610413919061049e565b505050505050565b60006020828403121561042c578081fd5b81516104378161058a565b9392505050565b600080600060608486031215610452578182fd5b833561045d8161058a565b9250602084013561046d8161058a565b929592945050506040919091013590565b60006020828403121561048f578081fd5b81518015158114610437578182fd5b6000602082840312156104af578081fd5b5051919050565b6001600160a01b039485168152928416602084015292166040820152606081019190915260800190565b6001600160a01b039384168152919092166020820152604081019190915260600190565b6001600160a01b03929092168252602082015260400190565b90815260200190565b6000604082528351806040840152815b818110156105535760208187018101516060868401015201610536565b818111156105645782606083860101525b506001600160a01b0393909316602083015250601f91909101601f191601606001919050565b6001600160a01b038116811461059f57600080fd5b50565b60008282604051602001610340929190610e06565b6000856001600160a01b031663ca446dd96105f86040518060400160405280600e81526020016d31b7b73a3930b1ba1737bbb732b960911b8152508861032b565b866040518363ffffffff1660e01b8152600401610616929190610dc0565b600060405180830381600087803b15801561063057600080fd5b505af1158015610644573d6000803e3d6000fd5b50505050856001600160a01b031663ca446dd96106866040518060400160405280600d81526020016c636f6e74726163742e6e616d6560981b815250866105a2565b876040518363ffffffff1660e01b81526004016106a4929190610dc0565b600060405180830381600087803b1580156106be57600080fd5b505af11580156106d2573d6000803e3d6000fd5b50505050856001600160a01b031663ca446dd96107176040518060400160405280601081526020016f636f6e74726163742e6164647265737360801b8152508861032b565b876040518363ffffffff1660e01b8152600401610735929190610dc0565b600060405180830381600087803b15801561074f57600080fd5b505af1158015610763573d6000803e3d6000fd5b50505050856001600160a01b0316636e8995506107ab60405180604001604052806013815260200172696e737572616e63652e706f6f6c2e6e616d6560681b8152508561032b565b856040518363ffffffff1660e01b81526004016107c9929190610dd7565b600060405180830381600087803b1580156107e357600080fd5b505af11580156107f7573d6000803e3d6000fd5b50505050856001600160a01b031663ca446dd961084260405180604001604052806016815260200175696e737572616e63652e706f6f6c2e6164647265737360501b8152508561032b565b876040518363ffffffff1660e01b8152600401610860929190610dc0565b600060405180830381600087803b15801561087a57600080fd5b505af115801561088e573d6000803e3d6000fd5b5060019998505050505050505050565b886001600160a01b031663ca446dd96108ec6040518060400160405280601d81526020017f696e737572616e63652e706f6f6c2e6c6971756964697479546f6b656e0000008152508861032b565b896040518363ffffffff1660e01b815260040161090a929190610dc0565b600060405180830381600087803b15801561092457600080fd5b505af1158015610938573d6000803e3d6000fd5b50505050886001600160a01b031663ca446dd961098a6040518060400160405280601a81526020017f696e737572616e63652e706f6f6c2e636c61696d73546f6b656e0000000000008152508861032b565b886040518363ffffffff1660e01b81526004016109a8929190610dc0565b600060405180830381600087803b1580156109c257600080fd5b505af11580156109d6573d6000803e3d6000fd5b50505050886001600160a01b031663ca446dd9610a2160405180604001604052806016815260200175696e737572616e63652e706f6f6c2e6164647265737360501b8152508861032b565b8a6040518363ffffffff1660e01b8152600401610a3f929190610dc0565b600060405180830381600087803b158015610a5957600080fd5b505af1158015610a6d573d6000803e3d6000fd5b50505050886001600160a01b031663ca446dd9610abf6040518060400160405280601b81526020017f696e737572616e63652e706f6f6c2e696e7375726564417373657400000000008152508861032b565b876040518363ffffffff1660e01b8152600401610add929190610dc0565b600060405180830381600087803b158015610af757600080fd5b505af1158015610b0b573d6000803e3d6000fd5b50505050886001600160a01b0316636e899550610b40604051806060016040528060218152602001610e35602191398861032b565b866040518363ffffffff1660e01b8152600401610b5e929190610dd7565b600060405180830381600087803b158015610b7857600080fd5b505af1158015610b8c573d6000803e3d6000fd5b50505050886001600160a01b031663e2a4853a610bde6040518060400160405280601d81526020017f696e737572616e63652e706f6f6c2e696e7375726565466565526174650000008152508861032b565b856040518363ffffffff1660e01b8152600401610bfc929190610df8565b600060405180830381600087803b158015610c1657600080fd5b505af1158015610c2a573d6000803e3d6000fd5b50505050886001600160a01b031663e2a4853a610c7c6040518060400160405280601d81526020017f696e737572616e63652e706f6f6c2e73657276696365466565526174650000008152508861032b565b846040518363ffffffff1660e01b8152600401610c9a929190610df8565b600060405180830381600087803b158015610cb457600080fd5b505af1158015610cc8573d6000803e3d6000fd5b50505050886001600160a01b031663e2a4853a610d1a6040518060400160405280601c81526020017f696e737572616e63652e706f6f6c2e7072656d69756d506572696f64000000008152508861032b565b836040518363ffffffff1660e01b8152600401610d38929190610df8565b600060405180830381600087803b158015610d5257600080fd5b505af1158015610d66573d6000803e3d6000fd5b50505050505050505050505050565b60008151808452815b81811015610d9a57602081850181015186830182015201610d7e565b81811115610dab5782602083870101525b50601f01601f19169290920160200192915050565b9182526001600160a01b0316602082015260400190565b600083825260406020830152610df06040830184610d75565b949350505050565b918252602082015260400190565b600060408252610e196040830185610d75565b8281036020840152610e2b8185610d75565b9594505050505056fe696e737572616e63652e706f6f6c2e696e7375726564417373657453796d626f6ca264697066735822122065003598c708083b29dc7624598f4eb3fc16ee7d64dacf65166438b91d592ac564736f6c63430006060033696e737572616e63652e706f6f6c2e696e7375726564417373657453796d626f6c608060405234801561001057600080fd5b5061005460405160200180806913d5d3915497d4d313d560b21b815250600a019050604051602081830303815290604052805190602001203361009d60201b60201c565b61009860405160200180806a14105556915497d4d313d560aa1b815250600b019050604051602081830303815290604052805190602001203361009d60201b60201c565b6100d5565b6100c1826100b3836001600160e01b036100c516565b6001600160e01b036100d116565b5050565b6001600160a01b031690565b9055565b610d44806100e46000396000f3fe6080604052600436106100fe5760003560e01c806382c947b711610095578063aaf10f4211610064578063aaf10f4214610377578063bb15ac8e1461038c578063caaee91c146103b6578063cfb51928146103e9578063d784d4261461049c576100fe565b806382c947b7146102bd5780638f4edfe2146102f05780639201de55146103235780639d84ae691461034d576100fe565b806337a440e6116100d157806337a440e6146102195780634bde4b2e146102555780635ced058e1461026a5780636805b84b14610294576100fe565b806316c38b3c1461010857806317b857dd146101345780631ab7710d146101495780631bc289601461017a575b6101066104cf565b005b34801561011457600080fd5b506101066004803603602081101561012b57600080fd5b50351515610552565b34801561014057600080fd5b5061010661061f565b34801561015557600080fd5b5061015e6106ea565b604080516001600160a01b039092168252519081900360200190f35b34801561018657600080fd5b506101a46004803603602081101561019d57600080fd5b503561072d565b6040805160208082528351818301528351919283929083019185019080838360005b838110156101de5781810151838201526020016101c6565b50505050905090810190601f16801561020b5780820380516001836020036101000a031916815260200191505b509250505060405180910390f35b34801561022557600080fd5b506102436004803603602081101561023c57600080fd5b5035610748565b60408051918252519081900360200190f35b34801561026157600080fd5b5061015e61074c565b34801561027657600080fd5b5061015e6004803603602081101561028d57600080fd5b503561078b565b3480156102a057600080fd5b506102a961078e565b604080519115158252519081900360200190f35b3480156102c957600080fd5b50610243600480360360208110156102e057600080fd5b50356001600160a01b03166107cd565b3480156102fc57600080fd5b506101066004803603602081101561031357600080fd5b50356001600160a01b03166107d9565b34801561032f57600080fd5b506101a46004803603602081101561034657600080fd5b50356108a2565b34801561035957600080fd5b5061015e6004803603602081101561037057600080fd5b50356109be565b34801561038357600080fd5b5061015e6109d1565b34801561039857600080fd5b506102a9600480360360208110156103af57600080fd5b5035610a18565b3480156103c257600080fd5b50610106600480360360208110156103d957600080fd5b50356001600160a01b0316610a2c565b3480156103f557600080fd5b506102436004803603602081101561040c57600080fd5b81019060208101813564010000000081111561042757600080fd5b82018360208201111561043957600080fd5b8035906020019184600183028401116401000000008311171561045b57600080fd5b91908080601f016020809104026020016040519081016040528093929190818152602001838380828437600092019190915250929550610af4945050505050565b3480156104a857600080fd5b50610106600480360360208110156104bf57600080fd5b50356001600160a01b0316610b12565b61050c60405160200180806a14105554d15117d4d313d560aa1b815250600b01905060405160208183030381529060405280519060200120610a18565b156105485760405162461bcd60e51b815260040180806020018281038252602c815260200180610ce3602c913960400191505060405180910390fd5b610550610be3565b565b61058f60405160200180806a14105556915497d4d313d560aa1b815250600b019050604051602081830303815290604052805190602001206109be565b6001600160a01b0316336001600160a01b0316146105de5760405162461bcd60e51b8152600401808060200182810382526030815260200180610c886030913960400191505060405180910390fd5b61061c60405160200180806a14105554d15117d4d313d560aa1b815250600b0190506040516020818303038152906040528051906020012082610c51565b50565b61065c60405160200180806a14105556915497d4d313d560aa1b815250600b019050604051602081830303815290604052805190602001206109be565b6001600160a01b0316336001600160a01b0316146106ab5760405162461bcd60e51b8152600401808060200182810382526030815260200180610c886030913960400191505060405180910390fd5b61055060405160200180806a14105556915497d4d313d560aa1b815250600b019050604051602081830303815290604052805190602001206000610c76565b600061072860405160200180806913d5d3915497d4d313d560b21b815250600a019050604051602081830303815290604052805190602001206109be565b905090565b606061074061073b83610748565b6108a2565b90505b919050565b5490565b600061072860405160200180806a14105556915497d4d313d560aa1b815250600b019050604051602081830303815290604052805190602001206109be565b90565b600061072860405160200180806a14105554d15117d4d313d560aa1b815250600b01905060405160208183030381529060405280519060200120610a18565b6001600160a01b031690565b61081560405160200180806913d5d3915497d4d313d560b21b815250600a019050604051602081830303815290604052805190602001206109be565b6001600160a01b0316336001600160a01b0316146108645760405162461bcd60e51b815260040180806020018281038252602b815260200180610cb8602b913960400191505060405180910390fd5b61061c60405160200180806a14105556915497d4d313d560aa1b815250600b0190506040516020818303038152906040528051906020012082610c76565b6040805160208082528183019092526060918291906020820181803683370190505090506000805b6020811015610920576008810260020a85026001600160f81b031981161561091757808484815181106108f957fe5b60200101906001600160f81b031916908160001a9053506001909201915b506001016108ca565b5060608167ffffffffffffffff8111801561093a57600080fd5b506040519080825280601f01601f191660200182016040528015610965576020820181803683370190505b50905060005b828110156109b55783818151811061097f57fe5b602001015160f81c60f81b82828151811061099657fe5b60200101906001600160f81b031916908160001a90535060010161096b565b50949350505050565b60006107406109cc83610748565b61078b565b600061072860405160200180807212535413115351539510551253d397d4d313d5606a1b8152506013019050604051602081830303815290604052805190602001206109be565b60006001610a2583610748565b1492915050565b610a6860405160200180806913d5d3915497d4d313d560b21b815250600a019050604051602081830303815290604052805190602001206109be565b6001600160a01b0316336001600160a01b031614610ab75760405162461bcd60e51b815260040180806020018281038252602b815260200180610cb8602b913960400191505060405180910390fd5b61061c60405160200180806913d5d3915497d4d313d560b21b815250600a0190506040516020818303038152906040528051906020012082610c76565b80516000908290610b09575060009050610743565b50506020015190565b610b4e60405160200180806913d5d3915497d4d313d560b21b815250600a019050604051602081830303815290604052805190602001206109be565b6001600160a01b0316336001600160a01b031614610b9d5760405162461bcd60e51b815260040180806020018281038252602b815260200180610cb8602b913960400191505060405180910390fd5b61061c60405160200180807212535413115351539510551253d397d4d313d5606a1b81525060130190506040516020818303038152906040528051906020012082610c76565b6000610c2a60405160200180807212535413115351539510551253d397d4d313d5606a1b8152506013019050604051602081830303815290604052805190602001206109be565b905060405136600082376000803683855af43d806000843e818015610c4d578184f35b8184fd5b8015610c6757610c62826001610c83565b610c72565b610c72826000610c83565b5050565b610c7282610c83836107cd565b905556fe5050726f78795061757361626c652e6f6e6c795061757a65723a206d73672073656e646572206e6f74207061757a65725050726f78792e6f6e6c7950726f78794f776e65723a206d73672073656e646572206e6f74206f776e65725050726f78795061757361626c652e6e6f745061757365643a20636f6e747261637420697320706175736564a264697066735822122024a9118df5084e36509b8bf031bde4c2a45987391d784b587041304f05affce664736f6c6343000606003350616e44414f3a20556e417574686f72697a6564202d204167656e74206f6e6c7950616e44414f3a20496e737572616e636520506f6f6c20616c726561647920657869737473a26469706673582212209745fb39029994fe7f74a736d72cd75e2030703918b73c70048ecd3c0bbc9e0964736f6c63430006060033"
}