{
  "abi": [
    {
      "inputs": [
        {
          "internalType": "address",
          "name": "_eternalStorageAddress",
          "type": "address"
        }
      ],
      "stateMutability": "nonpayable",
      "type": "constructor"
    },
    {
      "anonymous": false,
      "inputs": [
        {
          "indexed": false,
          "internalType": "string",
          "name": "_tokenName",
          "type": "string"
        },
        {
          "indexed": false,
          "internalType": "string",
          "name": "_tokenSymbol",
          "type": "string"
        },
        {
          "indexed": true,
          "internalType": "address",
          "name": "_tokenAddress",
          "type": "address"
        }
      ],
      "name": "ClaimsTokenCreated",
      "type": "event"
    },
    {
      "anonymous": false,
      "inputs": [
        {
          "indexed": false,
          "internalType": "string",
          "name": "_tokenName",
          "type": "string"
        },
        {
          "indexed": false,
          "internalType": "string",
          "name": "_tokenSymbol",
          "type": "string"
        },
        {
          "indexed": true,
          "internalType": "address",
          "name": "_tokenAddress",
          "type": "address"
        }
      ],
      "name": "LiquidityTokenCreated",
      "type": "event"
    },
    {
      "inputs": [
        {
          "internalType": "string",
          "name": "_insurableAssetSymbol",
          "type": "string"
        },
        {
          "internalType": "address",
          "name": "_insuredAssetAddress",
          "type": "address"
        },
        {
          "internalType": "address",
          "name": "_insurancePoolAddress",
          "type": "address"
        }
      ],
      "name": "createTokens",
      "outputs": [
        {
          "internalType": "address[]",
          "name": "",
          "type": "address[]"
        }
      ],
      "stateMutability": "nonpayable",
      "type": "function"
    },
    {
      "inputs": [],
      "name": "eternalStorageAddress",
      "outputs": [
        {
          "internalType": "address",
          "name": "",
          "type": "address"
        }
      ],
      "stateMutability": "view",
      "type": "function"
    }
  ],
  "address": "0x0078371BDeDE8aAc7DeBfFf451B74c5EDB385Af7",
  "args": [
    "0x7c2C195CD6D34B8F845992d380aADB2730bB9C6F"
  ],
  "bytecode": "0x608060405234801561001057600080fd5b50604051615f81380380615f818339818101604052602081101561003357600080fd5b5051600080546001600160a01b039092166001600160a01b0319909216919091179055615f1c806100656000396000f3fe60806040523480156200001157600080fd5b50600436106200003a5760003560e01c8063384782fe146200003f578063767ad1941462000065575b600080fd5b6200004962000179565b604080516001600160a01b039092168252519081900360200190f35b62000127600480360360608110156200007d57600080fd5b8101906020810181356401000000008111156200009957600080fd5b820183602082011115620000ac57600080fd5b80359060200191846001830284011164010000000083111715620000cf57600080fd5b91908080601f016020809104026020016040519081016040528093929190818152602001838380828437600092019190915250929550506001600160a01b038335811694506020909301359092169150620001889050565b60408051602080825283518183015283519192839290830191858101910280838360005b83811015620001655781810151838201526020016200014b565b505050509050019250505060405180910390f35b6000546001600160a01b031681565b6060338360006200019a8786620003a5565b60018054808201825560009182527fb10e2d527612073b26eecdfd717e6a320cf44b4afac2b0732d9fcbe2b7fa0cf60180546001600160a01b0319166001600160a01b038416179055909150620001f2888762000845565b60018054808201825560008290527fb10e2d527612073b26eecdfd717e6a320cf44b4afac2b0732d9fcbe2b7fa0cf60180546001600160a01b0319166001600160a01b0384161790558054604080516020808402820181019092528281529394508301828280156200028e57602002820191906000526020600020905b81546001600160a01b031681526001909101906020018083116200026f575b50505050509450505060008054604080518082019091526016815275696e737572616e63652e706f6f6c2e6164647265737360501b60208201526001600160a01b03909116919082906321f8a72190620002e99086620009cf565b6040518263ffffffff1660e01b81526004018082815260200191505060206040518083038186803b1580156200031e57600080fd5b505afa15801562000333573d6000803e3d6000fd5b505050506040513d60208110156200034a57600080fd5b505190506001600160a01b03808216908516146200039a5760405162461bcd60e51b815260040180806020018281038252603281526020018062005eb56032913960400191505060405180910390fd5b505050509392505050565b60006060620003ea6040518060400160405280601981526020017f50616e44414f204c697175696469747920546f6b656e202d20000000000000008152508562000a7f565b60008054604051929350909183916001600160a01b03169086906200040f9062000b3e565b6001600160a01b0380841660408301528216606082015260808082528451908201528351819060208083019160a084019188019080838360005b838110156200046357818101518382015260200162000449565b50505050905090810190601f168015620004915780820380516001836020036101000a031916815260200191505b509283039052506004815263262820a760e11b60208201526040805191829003019350915060009050f080158015620004ce573d6000803e3d6000fd5b509050806001600160a01b03167fb224327a2d0135f43953d77a15b9e43dfa5ae7f27fcef9a487e126f441dcfdc2826001600160a01b03166306fdde036040518163ffffffff1660e01b815260040160006040518083038186803b1580156200053657600080fd5b505afa1580156200054b573d6000803e3d6000fd5b505050506040513d6000823e601f3d908101601f1916820160405260208110156200057557600080fd5b81019080805160405193929190846401000000008211156200059657600080fd5b908301906020820185811115620005ac57600080fd5b8251640100000000811182820188101715620005c757600080fd5b82525081516020918201929091019080838360005b83811015620005f6578181015183820152602001620005dc565b50505050905090810190601f168015620006245780820380516001836020036101000a031916815260200191505b50604052505050836001600160a01b03166395d89b416040518163ffffffff1660e01b815260040160006040518083038186803b1580156200066557600080fd5b505afa1580156200067a573d6000803e3d6000fd5b505050506040513d6000823e601f3d908101601f191682016040526020811015620006a457600080fd5b8101908080516040519392919084640100000000821115620006c557600080fd5b908301906020820185811115620006db57600080fd5b8251640100000000811182820188101715620006f657600080fd5b82525081516020918201929091019080838360005b83811015620007255781810151838201526020016200070b565b50505050905090810190601f168015620007535780820380516001836020036101000a031916815260200191505b50604052505050604051808060200180602001838103835285818151815260200191508051906020019080838360005b838110156200079d57818101518382015260200162000783565b50505050905090810190601f168015620007cb5780820380516001836020036101000a031916815260200191505b50838103825284518152845160209182019186019080838360005b8381101562000800578181015183820152602001620007e6565b50505050905090810190601f1680156200082e5780820380516001836020036101000a031916815260200191505b5094505050505060405180910390a2949350505050565b60006060620008836040518060400160405280601681526020017502830b72220a79021b630b4b6b9902a37b5b2b71016960551b8152508562000a7f565b60008054604051929350909183916001600160a01b0316908690620008a89062000b3e565b6001600160a01b0380841660408301528216606082015260808082528451908201528351819060208083019160a084019188019080838360005b83811015620008fc578181015183820152602001620008e2565b50505050905090810190601f1680156200092a5780820380516001836020036101000a031916815260200191505b50928303905250600481526321a820a760e11b60208201526040805191829003019350915060009050f08015801562000967573d6000803e3d6000fd5b509050806001600160a01b03167f1ed2c8cb590578a73c30bfbae3d7957df99eaa7d5485e873361d0a0d7c7bc121826001600160a01b03166306fdde036040518163ffffffff1660e01b815260040160006040518083038186803b1580156200053657600080fd5b600082826040516020018080602001836001600160a01b03166001600160a01b03168152602001828103825284818151815260200191508051906020019080838360005b8381101562000a2d57818101518382015260200162000a13565b50505050905090810190601f16801562000a5b5780820380516001836020036101000a031916815260200191505b50935050505060405160208183030381529060405280519060200120905092915050565b606082826040516020018083805190602001908083835b6020831062000ab75780518252601f19909201916020918201910162000a96565b51815160209384036101000a600019018019909216911617905285519190930192850191508083835b6020831062000b015780518252601f19909201916020918201910162000ae0565b6001836020036101000a03801982511681845116808217855250505050505090500192505050604051602081830303815290604052905092915050565b6153688062000b4d8339019056fe60806040523480156200001157600080fd5b506040516200536838038062005368833981810160405260808110156200003757600080fd5b81019080805160405193929190846401000000008211156200005857600080fd5b9083019060208201858111156200006e57600080fd5b82516401000000008111828201881017156200008957600080fd5b82525081516020918201929091019080838360005b83811015620000b85781810151838201526020016200009e565b50505050905090810190601f168015620000e65780820380516001836020036101000a031916815260200191505b50604052602001805160405193929190846401000000008211156200010a57600080fd5b9083019060208201858111156200012057600080fd5b82516401000000008111828201881017156200013b57600080fd5b82525081516020918201929091019080838360005b838110156200016a57818101518382015260200162000150565b50505050905090810190601f168015620001985780820380516001836020036101000a031916815260200191505b506040908152602082810151929091015186519294509250839186918691620001c891600391908501906200039b565b508051620001de9060049060208401906200039b565b505060058054601260ff1990911617610100600160b01b031916620100006001600160a01b0394851681029190911791829055600680549190920484166001600160a01b0319909116179081905560408051808201909152600e81526d31b7b73a3930b1ba1737bbb732b960911b602080830191909152919093169263ca446dd9925062000277913090620002eb811b6200198c17901c565b836040518363ffffffff1660e01b815260040180838152602001826001600160a01b03166001600160a01b0316815260200192505050600060405180830381600087803b158015620002c857600080fd5b505af1158015620002dd573d6000803e3d6000fd5b505050505050505062000440565b600082826040516020018080602001836001600160a01b03166001600160a01b03168152602001828103825284818151815260200191508051906020019080838360005b83811015620003495781810151838201526020016200032f565b50505050905090810190601f168015620003775780820380516001836020036101000a031916815260200191505b50935050505060405160208183030381529060405280519060200120905092915050565b828054600181600116156101000203166002900490600052602060002090601f016020900481019282601f10620003de57805160ff19168380011785556200040e565b828001600101855582156200040e579182015b828111156200040e578251825591602001919060010190620003f1565b506200041c92915062000420565b5090565b6200043d91905b808211156200041c576000815560010162000427565b90565b614f1880620004506000396000f3fe60806040523480156200001157600080fd5b5060043610620001785760003560e01c8063536cf19a11620000d557806395d89b41116200008757806395d89b4114620004a4578063a457c2d714620004ae578063a5f20ff214620002b7578063a9059cbb14620004dd578063dd62ed3e146200050c578063e1f21c67146200053d5762000178565b8063536cf19a14620002b75780635b52bd1414620003715780635c975abb146200043857806370a08231146200044257806379cc6790146200046b5780638456cb59146200049a5762000178565b8063384782fe116200012f578063384782fe14620002c35780633950935114620002e95780633f4ba83a146200031857806340c10f19146200032257806342966c68146200035157806353493d2b14620002b75762000178565b806306fdde03146200017d578063095ea7b314620001ff57806318160ddd146200024257806323b872dd146200025e578063313ce56714620002975780633295f07a14620002b7575b600080fd5b6200018762000576565b6040805160208082528351818301528351919283929083019185019080838360005b83811015620001c3578181015183820152602001620001a9565b50505050905090810190601f168015620001f15780820380516001836020036101000a031916815260200191505b509250505060405180910390f35b6200022e600480360360408110156200021757600080fd5b506001600160a01b03813516906020013562000610565b604080519115158252519081900360200190f35b6200024c62000631565b60408051918252519081900360200190f35b6200022e600480360360608110156200027657600080fd5b506001600160a01b0381358116916020810135909116906040013562000637565b620002a1620006cf565b6040805160ff9092168252519081900360200190f35b620002c1620006d8565b005b620002cd620007c4565b604080516001600160a01b039092168252519081900360200190f35b6200022e600480360360408110156200030157600080fd5b506001600160a01b038135169060200135620007d9565b620002c162000834565b620002c1600480360360408110156200033a57600080fd5b506001600160a01b038135169060200135620009e0565b620002c1600480360360208110156200036957600080fd5b503562000b90565b620002c1600480360360a08110156200038957600080fd5b6001600160a01b038235169190810190604081016020820135640100000000811115620003b557600080fd5b820183602082011115620003c857600080fd5b80359060200191846001830284011164010000000083111715620003eb57600080fd5b91908080601f016020809104026020016040519081016040528093929190818152602001838380828437600092019190915250929550508235935050506020810135906040013562000ba8565b6200022e62001081565b6200024c600480360360208110156200045a57600080fd5b50356001600160a01b03166200108f565b620002c1600480360360408110156200048357600080fd5b506001600160a01b038135169060200135620010aa565b620002c162001117565b62000187620012bf565b6200022e60048036036040811015620004c657600080fd5b506001600160a01b03813516906020013562001323565b6200022e60048036036040811015620004f557600080fd5b506001600160a01b03813516906020013562001399565b6200024c600480360360408110156200052457600080fd5b506001600160a01b0381358116916020013516620013b1565b6200022e600480360360608110156200055557600080fd5b506001600160a01b03813581169160208101359091169060400135620013dc565b60038054604080516020601f6002600019610100600188161502019095169490940493840181900481028201810190925282815260609390929091830182828015620006065780601f10620005da5761010080835404028352916020019162000606565b820191906000526020600020905b815481529060010190602001808311620005e857829003601f168201915b5050505050905090565b6000620006286200062062001594565b848462001598565b50600192915050565b60025490565b60006200064684848462001688565b620006c5846200065562001594565b620006bf8560405180606001604052806028815260200162004db9602891396001600160a01b038a166000908152600160205260408120906200069762001594565b6001600160a01b03168152602081019190915260400160002054919063ffffffff620017fa16565b62001598565b5060019392505050565b60055460ff1690565b60065460408051808201909152600981526819185bcb9859d95b9d60ba1b602082015233916001600160a01b0316906321f8a72190620007189062001895565b6040518263ffffffff1660e01b81526004018082815260200191505060206040518083038186803b1580156200074d57600080fd5b505afa15801562000762573d6000803e3d6000fd5b505050506040513d60208110156200077957600080fd5b50516001600160a01b031614620007c25760405162461bcd60e51b815260040180806020018281038252602181526020018062004d6e6021913960400191505060405180910390fd5b565b6005546201000090046001600160a01b031681565b600062000628620007e962001594565b84620006bf8560016000620007fd62001594565b6001600160a01b03908116825260208083019390935260409182016000908120918c16815292529020549063ffffffff6200192a16565b60065460408051808201909152600e81526d31b7b73a3930b1ba1737bbb732b960911b60208201526001600160a01b03909116906321f8a721906200087a90306200198c565b6040518263ffffffff1660e01b81526004018082815260200191505060206040518083038186803b158015620008af57600080fd5b505afa158015620008c4573d6000803e3d6000fd5b505050506040513d6020811015620008db57600080fd5b505160065460408051808201909152600e81526d31b7b73a3930b1ba1737bbb732b960911b602082015230916001600160a01b03808516929116906321f8a721906200092890856200198c565b6040518263ffffffff1660e01b81526004018082815260200191505060206040518083038186803b1580156200095d57600080fd5b505afa15801562000972573d6000803e3d6000fd5b505050506040513d60208110156200098957600080fd5b50516001600160a01b031614620009d25760405162461bcd60e51b815260040180806020018281038252602a81526020018062004d8f602a913960400191505060405180910390fd5b620009dc62001a3c565b5050565b60065460408051808201909152600e81526d31b7b73a3930b1ba1737bbb732b960911b60208201526001600160a01b03909116906321f8a7219062000a2690306200198c565b6040518263ffffffff1660e01b81526004018082815260200191505060206040518083038186803b15801562000a5b57600080fd5b505afa15801562000a70573d6000803e3d6000fd5b505050506040513d602081101562000a8757600080fd5b505160065460408051808201909152600e81526d31b7b73a3930b1ba1737bbb732b960911b602082015230916001600160a01b03808516929116906321f8a7219062000ad490856200198c565b6040518263ffffffff1660e01b81526004018082815260200191505060206040518083038186803b15801562000b0957600080fd5b505afa15801562000b1e573d6000803e3d6000fd5b505050506040513d602081101562000b3557600080fd5b50516001600160a01b03161462000b7e5760405162461bcd60e51b815260040180806020018281038252602a81526020018062004d8f602a913960400191505060405180910390fd5b62000b8a848462001ae3565b50505050565b62000ba562000b9e62001594565b8262001be6565b50565b60065460408051808201909152600981526819185bcb9859d95b9d60ba1b602082015233916001600160a01b0316906321f8a7219062000be89062001895565b6040518263ffffffff1660e01b81526004018082815260200191505060206040518083038186803b15801562000c1d57600080fd5b505afa15801562000c32573d6000803e3d6000fd5b505050506040513d602081101562000c4957600080fd5b50516001600160a01b03161462000c925760405162461bcd60e51b815260040180806020018281038252602181526020018062004d6e6021913960400191505060405180910390fd5b60065460408051808201909152601081526f636f6e74726163742e6164647265737360801b60208201526000916001600160a01b0316906321f8a7219062000cdb90896200198c565b6040518263ffffffff1660e01b81526004018082815260200191505060206040518083038186803b15801562000d1057600080fd5b505afa15801562000d25573d6000803e3d6000fd5b505050506040513d602081101562000d3c57600080fd5b50516001600160a01b03161462000d855760405162461bcd60e51b815260040180806020018281038252602581526020018062004e946025913960400191505060405180910390fd5b60008585858585600560029054906101000a90046001600160a01b031660405162000db09062001e28565b6001600160a01b038088168252604082018690526060820185905260808201849052821660a082015260c06020808301828152885192840192909252875160e084019189019080838360005b8381101562000e1657818101518382015260200162000dfc565b50505050905090810190601f16801562000e445780820380516001836020036101000a031916815260200191505b50975050505050505050604051809103906000f08015801562000e6b573d6000803e3d6000fd5b509050600060405162000e7e9062001e36565b604051809103906000f08015801562000e9b573d6000803e3d6000fd5b509050806001600160a01b031663d784d426836040518263ffffffff1660e01b815260040180826001600160a01b03166001600160a01b03168152602001915050600060405180830381600087803b15801562000ef757600080fd5b505af115801562000f0c573d6000803e3d6000fd5b5050604080516347a76ff160e11b815230600482015290516001600160a01b0385169350638f4edfe29250602480830192600092919082900301818387803b15801562000f5857600080fd5b505af115801562000f6d573d6000803e3d6000fd5b5050604080516332abba4760e21b815230600482015290516001600160a01b038516935063caaee91c9250602480830192600092919082900301818387803b15801562000fb957600080fd5b505af115801562000fce573d6000803e3d6000fd5b50505050816001600160a01b03167fc90b2539b2625e5cecc6e3950434f726117062e7b3042f6ddcb14173d8af9e21876040518080602001828103825283818151815260200191508051906020019080838360005b838110156200103d57818101518382015260200162001023565b50505050905090810190601f1680156200106b5780820380516001836020036101000a031916815260200191505b509250505060405180910390a250505050505050565b600554610100900460ff1690565b6001600160a01b031660009081526020819052604090205490565b6000620010ee8260405180606001604052806024815260200162004de160249139620010e086620010da62001594565b620013b1565b919063ffffffff620017fa16565b90506200110683620010ff62001594565b8362001598565b62001112838362001be6565b505050565b60065460408051808201909152600e81526d31b7b73a3930b1ba1737bbb732b960911b60208201526001600160a01b03909116906321f8a721906200115d90306200198c565b6040518263ffffffff1660e01b81526004018082815260200191505060206040518083038186803b1580156200119257600080fd5b505afa158015620011a7573d6000803e3d6000fd5b505050506040513d6020811015620011be57600080fd5b505160065460408051808201909152600e81526d31b7b73a3930b1ba1737bbb732b960911b602082015230916001600160a01b03808516929116906321f8a721906200120b90856200198c565b6040518263ffffffff1660e01b81526004018082815260200191505060206040518083038186803b1580156200124057600080fd5b505afa15801562001255573d6000803e3d6000fd5b505050506040513d60208110156200126c57600080fd5b50516001600160a01b031614620012b55760405162461bcd60e51b815260040180806020018281038252602a81526020018062004d8f602a913960400191505060405180910390fd5b620009dc62001cf7565b60048054604080516020601f6002600019610100600188161502019095169490940493840181900481028201810190925282815260609390929091830182828015620006065780601f10620005da5761010080835404028352916020019162000606565b6000620006286200133362001594565b84620006bf8560405180606001604052806025815260200162004e6f60259139600160006200136162001594565b6001600160a01b03908116825260208083019390935260409182016000908120918d1681529252902054919063ffffffff620017fa16565b600062000628620013a962001594565b848462001688565b6001600160a01b03918216600090815260016020908152604080832093909416825291909152205490565b60065460408051808201909152600e81526d31b7b73a3930b1ba1737bbb732b960911b60208201526000916001600160a01b0316906321f8a721906200142390306200198c565b6040518263ffffffff1660e01b81526004018082815260200191505060206040518083038186803b1580156200145857600080fd5b505afa1580156200146d573d6000803e3d6000fd5b505050506040513d60208110156200148457600080fd5b505160065460408051808201909152600e81526d31b7b73a3930b1ba1737bbb732b960911b602082015230916001600160a01b03808516929116906321f8a72190620014d190856200198c565b6040518263ffffffff1660e01b81526004018082815260200191505060206040518083038186803b1580156200150657600080fd5b505afa1580156200151b573d6000803e3d6000fd5b505050506040513d60208110156200153257600080fd5b50516001600160a01b0316146200157b5760405162461bcd60e51b815260040180806020018281038252602a81526020018062004d8f602a913960400191505060405180910390fd5b6200158886868662001598565b50600195945050505050565b3390565b6001600160a01b038316620015df5760405162461bcd60e51b815260040180806020018281038252602481526020018062004e4b6024913960400191505060405180910390fd5b6001600160a01b038216620016265760405162461bcd60e51b815260040180806020018281038252602281526020018062004d266022913960400191505060405180910390fd5b6001600160a01b03808416600081815260016020908152604080832094871680845294825291829020859055815185815291517f8c5be1e5ebec7d5bd14f71427d1e84f3dd0314c0f7b2291e5b200ac8c7c3b9259281900390910190a3505050565b6001600160a01b038316620016cf5760405162461bcd60e51b815260040180806020018281038252602581526020018062004e266025913960400191505060405180910390fd5b6001600160a01b038216620017165760405162461bcd60e51b815260040180806020018281038252602381526020018062004ce16023913960400191505060405180910390fd5b6200172383838362001d82565b620017698160405180606001604052806026815260200162004d48602691396001600160a01b038616600090815260208190526040902054919063ffffffff620017fa16565b6001600160a01b038085166000908152602081905260408082209390935590841681522054620017a0908263ffffffff6200192a16565b6001600160a01b038084166000818152602081815260409182902094909455805185815290519193928716927fddf252ad1be2c89b69c2b068fc378daa952ba7f163c4a11628f55a4df523b3ef92918290030190a3505050565b600081848411156200188d5760405162461bcd60e51b81526004018080602001828103825283818151815260200191508051906020019080838360005b838110156200185157818101518382015260200162001837565b50505050905090810190601f1680156200187f5780820380516001836020036101000a031916815260200191505b509250505060405180910390fd5b505050900390565b6000816040516020018080602001828103825283818151815260200191508051906020019080838360005b83811015620018da578181015183820152602001620018c0565b50505050905090810190601f168015620019085780820380516001836020036101000a031916815260200191505b5092505050604051602081830303815290604052805190602001209050919050565b60008282018381101562001985576040805162461bcd60e51b815260206004820152601b60248201527f536166654d6174683a206164646974696f6e206f766572666c6f770000000000604482015290519081900360640190fd5b9392505050565b600082826040516020018080602001836001600160a01b03166001600160a01b03168152602001828103825284818151815260200191508051906020019080838360005b83811015620019ea578181015183820152602001620019d0565b50505050905090810190601f16801562001a185780820380516001836020036101000a031916815260200191505b50935050505060405160208183030381529060405280519060200120905092915050565b600554610100900460ff1662001a90576040805162461bcd60e51b815260206004820152601460248201527314185d5cd8589b194e881b9bdd081c185d5cd95960621b604482015290519081900360640190fd5b6005805461ff00191690557f5db9ee0a495bf2e6ff9c91a7834c1ba4fdd244a5e8aa4e537bd38aeae4b073aa62001ac662001594565b604080516001600160a01b039092168252519081900360200190a1565b6001600160a01b03821662001b3f576040805162461bcd60e51b815260206004820152601f60248201527f45524332303a206d696e7420746f20746865207a65726f206164647265737300604482015290519081900360640190fd5b62001b4d6000838362001d82565b60025462001b62908263ffffffff6200192a16565b6002556001600160a01b03821660009081526020819052604090205462001b90908263ffffffff6200192a16565b6001600160a01b0383166000818152602081815260408083209490945583518581529351929391927fddf252ad1be2c89b69c2b068fc378daa952ba7f163c4a11628f55a4df523b3ef9281900390910190a35050565b6001600160a01b03821662001c2d5760405162461bcd60e51b815260040180806020018281038252602181526020018062004e056021913960400191505060405180910390fd5b62001c3b8260008362001d82565b62001c818160405180606001604052806022815260200162004d04602291396001600160a01b038516600090815260208190526040902054919063ffffffff620017fa16565b6001600160a01b03831660009081526020819052604090205560025462001caf908263ffffffff62001d8f16565b6002556040805182815290516000916001600160a01b038516917fddf252ad1be2c89b69c2b068fc378daa952ba7f163c4a11628f55a4df523b3ef9181900360200190a35050565b600554610100900460ff161562001d48576040805162461bcd60e51b815260206004820152601060248201526f14185d5cd8589b194e881c185d5cd95960821b604482015290519081900360640190fd5b6005805461ff0019166101001790557f62e78cea01bee320cd4e420270b5ea74000d11b0c9f74754ebdbfc544b05a25862001ac662001594565b6200111283838362001dd3565b60006200198583836040518060400160405280601e81526020017f536166654d6174683a207375627472616374696f6e206f766572666c6f770000815250620017fa565b62001de083838362001112565b62001dea62001081565b15620011125760405162461bcd60e51b815260040180806020018281038252602a81526020018062004eb9602a913960400191505060405180910390fd5b6120748062001e4583390190565b610e288062003eb98339019056fe60806040523480156200001157600080fd5b506040516200207438038062002074833981016040819052620000349162000d9a565b600080546001600160a01b0319166001600160a01b038381169190911780835560408051808201909152601b81527f696e737572616e63652e706f6f6c2e696e73757265644173736574000000000060208083019190915291909216916321f8a72191620000ae91908b906200049a811b6200032b17901c565b6040518263ffffffff1660e01b8152600401620000cc919062000f94565b60206040518083038186803b158015620000e557600080fd5b505afa158015620000fa573d6000803e3d6000fd5b505050506040513d601f19601f8201168201806040525081019062000120919062000d75565b90506001600160a01b03811615620001555760405162461bcd60e51b81526004016200014c90620010c4565b60405180910390fd5b60008054604080518082018252600d81526c636f6e74726163742e6e616d6560981b6020808301919091528251808401909352600783526626b0b730b3b2b960c91b838201526200024e936001600160a01b031692309284926321f8a72192620001c99291620005a2620004d0821b17901c565b6040518263ffffffff1660e01b8152600401620001e7919062000f94565b60206040518083038186803b1580156200020057600080fd5b505afa15801562000215573d6000803e3d6000fd5b505050506040513d601f19601f820116820180604052508101906200023b919062000d75565b8a8c620004e760201b620005b71760201c565b9050600181151514620002755760405162461bcd60e51b81526004016200014c9062001078565b60008054604080518082018252600d81526c636f6e74726163742e6e616d6560981b6020808301919091528251808401909352600c83526b546f6b656e466163746f727960a01b838201526001600160a01b03909316926321f8a72192620002e79291620005a2620004d0821b17901c565b6040518263ffffffff1660e01b815260040162000305919062000f94565b60206040518083038186803b1580156200031e57600080fd5b505afa15801562000333573d6000803e3d6000fd5b505050506040513d601f19601f8201168201806040525081019062000359919062000d75565b90506060816001600160a01b031663767ad1948a8c306040518463ffffffff1660e01b81526004016200038f9392919062001011565b600060405180830381600087803b158015620003aa57600080fd5b505af1158015620003bf573d6000803e3d6000fd5b505050506040513d6000823e601f3d908101601f19168201604052620003e9919081019062000e65565b9050620004476000809054906101000a90046001600160a01b031630836000815181106200041357fe5b6020026020010151846001815181106200042957fe5b60200260200101518e8e8e8e8e6200081b60201b6200089e1760201c565b7ff2b53aea300726eb804be4b152d7ca3bf5579251ab27ddf42eeb5abc1071f06a308b8b8b8a8c604051620004829695949392919062000f48565b60405180910390a150505050505050505050620011b8565b60008282604051602001620004b192919062000fe5565b6040516020818303038152906040528051906020012090505b92915050565b60008282604051602001620004b192919062001046565b6000856001600160a01b031663ca446dd9620005306040518060400160405280600e81526020016d31b7b73a3930b1ba1737bbb732b960911b815250886200049a60201b60201c565b866040518363ffffffff1660e01b81526004016200055092919062000f9d565b600060405180830381600087803b1580156200056b57600080fd5b505af115801562000580573d6000803e3d6000fd5b50505050856001600160a01b031663ca446dd9620005ca6040518060400160405280600d81526020016c636f6e74726163742e6e616d6560981b81525086620004d060201b60201c565b876040518363ffffffff1660e01b8152600401620005ea92919062000f9d565b600060405180830381600087803b1580156200060557600080fd5b505af11580156200061a573d6000803e3d6000fd5b50505050856001600160a01b031663ca446dd9620006676040518060400160405280601081526020016f636f6e74726163742e6164647265737360801b815250886200049a60201b60201c565b876040518363ffffffff1660e01b81526004016200068792919062000f9d565b600060405180830381600087803b158015620006a257600080fd5b505af1158015620006b7573d6000803e3d6000fd5b50505050856001600160a01b0316636e899550620007116040518060400160405280601381526020017f696e737572616e63652e706f6f6c2e6e616d6500000000000000000000000000815250856200049a60201b60201c565b856040518363ffffffff1660e01b81526004016200073192919062000fb4565b600060405180830381600087803b1580156200074c57600080fd5b505af115801562000761573d6000803e3d6000fd5b50505050856001600160a01b031663ca446dd9620007bb6040518060400160405280601681526020017f696e737572616e63652e706f6f6c2e6164647265737300000000000000000000815250856200049a60201b60201c565b876040518363ffffffff1660e01b8152600401620007db92919062000f9d565b600060405180830381600087803b158015620007f657600080fd5b505af11580156200080b573d6000803e3d6000fd5b5060019998505050505050505050565b886001600160a01b031663ca446dd9620008716040518060400160405280601d81526020017f696e737572616e63652e706f6f6c2e6c6971756964697479546f6b656e000000815250886200049a60201b60201c565b896040518363ffffffff1660e01b81526004016200089192919062000f9d565b600060405180830381600087803b158015620008ac57600080fd5b505af1158015620008c1573d6000803e3d6000fd5b50505050886001600160a01b031663ca446dd96200091b6040518060400160405280601a81526020017f696e737572616e63652e706f6f6c2e636c61696d73546f6b656e000000000000815250886200049a60201b60201c565b886040518363ffffffff1660e01b81526004016200093b92919062000f9d565b600060405180830381600087803b1580156200095657600080fd5b505af11580156200096b573d6000803e3d6000fd5b50505050886001600160a01b031663ca446dd9620009c56040518060400160405280601681526020017f696e737572616e63652e706f6f6c2e6164647265737300000000000000000000815250886200049a60201b60201c565b8a6040518363ffffffff1660e01b8152600401620009e592919062000f9d565b600060405180830381600087803b15801562000a0057600080fd5b505af115801562000a15573d6000803e3d6000fd5b50505050886001600160a01b031663ca446dd962000a6f6040518060400160405280601b81526020017f696e737572616e63652e706f6f6c2e696e737572656441737365740000000000815250886200049a60201b60201c565b876040518363ffffffff1660e01b815260040162000a8f92919062000f9d565b600060405180830381600087803b15801562000aaa57600080fd5b505af115801562000abf573d6000803e3d6000fd5b50505050886001600160a01b0316636e89955062000b006040518060600160405280602181526020016200205360219139886001600160e01b036200049a16565b866040518363ffffffff1660e01b815260040162000b2092919062000fb4565b600060405180830381600087803b15801562000b3b57600080fd5b505af115801562000b50573d6000803e3d6000fd5b50505050886001600160a01b031663e2a4853a62000baa6040518060400160405280601d81526020017f696e737572616e63652e706f6f6c2e696e737572656546656552617465000000815250886200049a60201b60201c565b856040518363ffffffff1660e01b815260040162000bca92919062000fd7565b600060405180830381600087803b15801562000be557600080fd5b505af115801562000bfa573d6000803e3d6000fd5b50505050886001600160a01b031663e2a4853a62000c546040518060400160405280601d81526020017f696e737572616e63652e706f6f6c2e7365727669636546656552617465000000815250886200049a60201b60201c565b846040518363ffffffff1660e01b815260040162000c7492919062000fd7565b600060405180830381600087803b15801562000c8f57600080fd5b505af115801562000ca4573d6000803e3d6000fd5b50505050886001600160a01b031663e2a4853a62000cfe6040518060400160405280601c81526020017f696e737572616e63652e706f6f6c2e7072656d69756d506572696f6400000000815250886200049a60201b60201c565b836040518363ffffffff1660e01b815260040162000d1e92919062000fd7565b600060405180830381600087803b15801562000d3957600080fd5b505af115801562000d4e573d6000803e3d6000fd5b50505050505050505050505050565b80516001600160a01b0381168114620004ca57600080fd5b60006020828403121562000d87578081fd5b62000d93838362000d5d565b9392505050565b60008060008060008060c0878903121562000db3578182fd5b865162000dc0816200119f565b60208801519096506001600160401b0381111562000ddc578283fd5b80880189601f82011262000dee578384fd5b8051915062000e0762000e018362001148565b62001121565b8281528a602084840101111562000e1c578485fd5b62000e2f8360208301602085016200116c565b80975050505060408701519350606087015192506080870151915062000e598860a0890162000d5d565b90509295509295509295565b6000602080838503121562000e78578182fd5b82516001600160401b038082111562000e8f578384fd5b81850186601f82011262000ea1578485fd5b805192508183111562000eb2578485fd5b838302915062000ec484830162001121565b8381528481019082860184840187018a101562000edf578788fd5b8794505b8585101562000f0d5762000ef88a8262000d5d565b83526001949094019391860191860162000ee3565b5098975050505050505050565b6000815180845262000f348160208601602086016200116c565b601f01601f19169290920160200192915050565b6001600160a01b0387811682528616602082015260c06040820181905260009062000f769083018762000f1a565b606083019590955250608081019290925260a0909101529392505050565b90815260200190565b9182526001600160a01b0316602082015260400190565b60008382526040602083015262000fcf604083018462000f1a565b949350505050565b918252602082015260400190565b60006040825262000ffa604083018562000f1a565b905060018060a01b03831660208301529392505050565b60006060825262001026606083018662000f1a565b6001600160a01b0394851660208401529290931660409091015292915050565b6000604082526200105b604083018562000f1a565b82810360208401526200106f818562000f1a565b95945050505050565b6020808252602c908201527f50616e44414f3a204661696c656420746f20696e697469616c697a656420496e60408201526b1cdd5c985b98d948141bdbdb60a21b606082015260800190565b60208082526034908201527f50616e44414f3a20496e737572616e636520506f6f6c20616c7265616479206560408201527f786973747320666f722074686174206173736574000000000000000000000000606082015260800190565b6040518181016001600160401b03811182821017156200114057600080fd5b604052919050565b60006001600160401b038211156200115e578081fd5b50601f01601f191660200190565b60005b83811015620011895781810151838201526020016200116f565b8381111562001199576000848401525b50505050565b6001600160a01b0381168114620011b557600080fd5b50565b610e8b80620011c86000396000f3fe6080604052600436106100705760003560e01c806371618c791161004e57806371618c791461007557806377963eba14610075578063e4a767261461008c578063f2e99ff61461007557610070565b8063372500ab14610075578063590aea7d1461007557806367b9a28614610075575b600080fd5b34801561008157600080fd5b5061008a61009f565b005b61008a61009a36600461043e565b6100a1565b565b6000805460408051808201909152601d81527f696e737572616e63652e706f6f6c2e6c6971756964697479546f6b656e00000060208201526001600160a01b03909116906321f8a721906100f5908761032b565b6040518263ffffffff1660e01b8152600401610111919061051d565b60206040518083038186803b15801561012957600080fd5b505afa15801561013d573d6000803e3d6000fd5b505050506040513d601f19601f82011682018060405250810190610161919061041b565b6040516323b872dd60e01b8152909150819085906001600160a01b038216906323b872dd90610198908890309089906004016104e0565b602060405180830381600087803b1580156101b257600080fd5b505af11580156101c6573d6000803e3d6000fd5b505050506040513d601f19601f820116820180604052508101906101ea919061047e565b506040516340c10f1960e01b81526001600160a01b038316906340c10f19906102199088908890600401610504565b600060405180830381600087803b15801561023357600080fd5b505af1158015610247573d6000803e3d6000fd5b505060405163e1f21c6760e01b81526001600160a01b038516925063e1f21c67915061027b908890309089906004016104e0565b602060405180830381600087803b15801561029557600080fd5b505af11580156102a9573d6000803e3d6000fd5b505050506040513d601f19601f820116820180604052508101906102cd919061047e565b506000546102e6906001600160a01b031687878761035e565b7fceda01f47547afec2949bd277d7d21f0d2f67da7b671bd8a8451f7b41846abf03087878760405161031b94939291906104b6565b60405180910390a1505050505050565b60008282604051602001610340929190610526565b60405160208183030381529060405280519060200120905092915050565b6000846001600160a01b031663bd02d0f56103a760405180604001604052806016815260200175696e737572616e63652e706f6f6c2e62616c616e636560501b8152508761032b565b6040518263ffffffff1660e01b81526004016103c3919061051d565b60206040518083038186803b1580156103db57600080fd5b505afa1580156103ef573d6000803e3d6000fd5b505050506040513d601f19601f82011682018060405250810190610413919061049e565b505050505050565b60006020828403121561042c578081fd5b81516104378161058a565b9392505050565b600080600060608486031215610452578182fd5b833561045d8161058a565b9250602084013561046d8161058a565b929592945050506040919091013590565b60006020828403121561048f578081fd5b81518015158114610437578182fd5b6000602082840312156104af578081fd5b5051919050565b6001600160a01b039485168152928416602084015292166040820152606081019190915260800190565b6001600160a01b039384168152919092166020820152604081019190915260600190565b6001600160a01b03929092168252602082015260400190565b90815260200190565b6000604082528351806040840152815b818110156105535760208187018101516060868401015201610536565b818111156105645782606083860101525b506001600160a01b0393909316602083015250601f91909101601f191601606001919050565b6001600160a01b038116811461059f57600080fd5b50565b60008282604051602001610340929190610e06565b6000856001600160a01b031663ca446dd96105f86040518060400160405280600e81526020016d31b7b73a3930b1ba1737bbb732b960911b8152508861032b565b866040518363ffffffff1660e01b8152600401610616929190610dc0565b600060405180830381600087803b15801561063057600080fd5b505af1158015610644573d6000803e3d6000fd5b50505050856001600160a01b031663ca446dd96106866040518060400160405280600d81526020016c636f6e74726163742e6e616d6560981b815250866105a2565b876040518363ffffffff1660e01b81526004016106a4929190610dc0565b600060405180830381600087803b1580156106be57600080fd5b505af11580156106d2573d6000803e3d6000fd5b50505050856001600160a01b031663ca446dd96107176040518060400160405280601081526020016f636f6e74726163742e6164647265737360801b8152508861032b565b876040518363ffffffff1660e01b8152600401610735929190610dc0565b600060405180830381600087803b15801561074f57600080fd5b505af1158015610763573d6000803e3d6000fd5b50505050856001600160a01b0316636e8995506107ab60405180604001604052806013815260200172696e737572616e63652e706f6f6c2e6e616d6560681b8152508561032b565b856040518363ffffffff1660e01b81526004016107c9929190610dd7565b600060405180830381600087803b1580156107e357600080fd5b505af11580156107f7573d6000803e3d6000fd5b50505050856001600160a01b031663ca446dd961084260405180604001604052806016815260200175696e737572616e63652e706f6f6c2e6164647265737360501b8152508561032b565b876040518363ffffffff1660e01b8152600401610860929190610dc0565b600060405180830381600087803b15801561087a57600080fd5b505af115801561088e573d6000803e3d6000fd5b5060019998505050505050505050565b886001600160a01b031663ca446dd96108ec6040518060400160405280601d81526020017f696e737572616e63652e706f6f6c2e6c6971756964697479546f6b656e0000008152508861032b565b896040518363ffffffff1660e01b815260040161090a929190610dc0565b600060405180830381600087803b15801561092457600080fd5b505af1158015610938573d6000803e3d6000fd5b50505050886001600160a01b031663ca446dd961098a6040518060400160405280601a81526020017f696e737572616e63652e706f6f6c2e636c61696d73546f6b656e0000000000008152508861032b565b886040518363ffffffff1660e01b81526004016109a8929190610dc0565b600060405180830381600087803b1580156109c257600080fd5b505af11580156109d6573d6000803e3d6000fd5b50505050886001600160a01b031663ca446dd9610a2160405180604001604052806016815260200175696e737572616e63652e706f6f6c2e6164647265737360501b8152508861032b565b8a6040518363ffffffff1660e01b8152600401610a3f929190610dc0565b600060405180830381600087803b158015610a5957600080fd5b505af1158015610a6d573d6000803e3d6000fd5b50505050886001600160a01b031663ca446dd9610abf6040518060400160405280601b81526020017f696e737572616e63652e706f6f6c2e696e7375726564417373657400000000008152508861032b565b876040518363ffffffff1660e01b8152600401610add929190610dc0565b600060405180830381600087803b158015610af757600080fd5b505af1158015610b0b573d6000803e3d6000fd5b50505050886001600160a01b0316636e899550610b40604051806060016040528060218152602001610e35602191398861032b565b866040518363ffffffff1660e01b8152600401610b5e929190610dd7565b600060405180830381600087803b158015610b7857600080fd5b505af1158015610b8c573d6000803e3d6000fd5b50505050886001600160a01b031663e2a4853a610bde6040518060400160405280601d81526020017f696e737572616e63652e706f6f6c2e696e7375726565466565526174650000008152508861032b565b856040518363ffffffff1660e01b8152600401610bfc929190610df8565b600060405180830381600087803b158015610c1657600080fd5b505af1158015610c2a573d6000803e3d6000fd5b50505050886001600160a01b031663e2a4853a610c7c6040518060400160405280601d81526020017f696e737572616e63652e706f6f6c2e73657276696365466565526174650000008152508861032b565b846040518363ffffffff1660e01b8152600401610c9a929190610df8565b600060405180830381600087803b158015610cb457600080fd5b505af1158015610cc8573d6000803e3d6000fd5b50505050886001600160a01b031663e2a4853a610d1a6040518060400160405280601c81526020017f696e737572616e63652e706f6f6c2e7072656d69756d506572696f64000000008152508861032b565b836040518363ffffffff1660e01b8152600401610d38929190610df8565b600060405180830381600087803b158015610d5257600080fd5b505af1158015610d66573d6000803e3d6000fd5b50505050505050505050505050565b60008151808452815b81811015610d9a57602081850181015186830182015201610d7e565b81811115610dab5782602083870101525b50601f01601f19169290920160200192915050565b9182526001600160a01b0316602082015260400190565b600083825260406020830152610df06040830184610d75565b949350505050565b918252602082015260400190565b600060408252610e196040830185610d75565b8281036020840152610e2b8185610d75565b9594505050505056fe696e737572616e63652e706f6f6c2e696e7375726564417373657453796d626f6ca264697066735822122065003598c708083b29dc7624598f4eb3fc16ee7d64dacf65166438b91d592ac564736f6c63430006060033696e737572616e63652e706f6f6c2e696e7375726564417373657453796d626f6c608060405234801561001057600080fd5b5061005460405160200180806913d5d3915497d4d313d560b21b815250600a019050604051602081830303815290604052805190602001203361009d60201b60201c565b61009860405160200180806a14105556915497d4d313d560aa1b815250600b019050604051602081830303815290604052805190602001203361009d60201b60201c565b6100d5565b6100c1826100b3836001600160e01b036100c516565b6001600160e01b036100d116565b5050565b6001600160a01b031690565b9055565b610d44806100e46000396000f3fe6080604052600436106100fe5760003560e01c806382c947b711610095578063aaf10f4211610064578063aaf10f4214610377578063bb15ac8e1461038c578063caaee91c146103b6578063cfb51928146103e9578063d784d4261461049c576100fe565b806382c947b7146102bd5780638f4edfe2146102f05780639201de55146103235780639d84ae691461034d576100fe565b806337a440e6116100d157806337a440e6146102195780634bde4b2e146102555780635ced058e1461026a5780636805b84b14610294576100fe565b806316c38b3c1461010857806317b857dd146101345780631ab7710d146101495780631bc289601461017a575b6101066104cf565b005b34801561011457600080fd5b506101066004803603602081101561012b57600080fd5b50351515610552565b34801561014057600080fd5b5061010661061f565b34801561015557600080fd5b5061015e6106ea565b604080516001600160a01b039092168252519081900360200190f35b34801561018657600080fd5b506101a46004803603602081101561019d57600080fd5b503561072d565b6040805160208082528351818301528351919283929083019185019080838360005b838110156101de5781810151838201526020016101c6565b50505050905090810190601f16801561020b5780820380516001836020036101000a031916815260200191505b509250505060405180910390f35b34801561022557600080fd5b506102436004803603602081101561023c57600080fd5b5035610748565b60408051918252519081900360200190f35b34801561026157600080fd5b5061015e61074c565b34801561027657600080fd5b5061015e6004803603602081101561028d57600080fd5b503561078b565b3480156102a057600080fd5b506102a961078e565b604080519115158252519081900360200190f35b3480156102c957600080fd5b50610243600480360360208110156102e057600080fd5b50356001600160a01b03166107cd565b3480156102fc57600080fd5b506101066004803603602081101561031357600080fd5b50356001600160a01b03166107d9565b34801561032f57600080fd5b506101a46004803603602081101561034657600080fd5b50356108a2565b34801561035957600080fd5b5061015e6004803603602081101561037057600080fd5b50356109be565b34801561038357600080fd5b5061015e6109d1565b34801561039857600080fd5b506102a9600480360360208110156103af57600080fd5b5035610a18565b3480156103c257600080fd5b50610106600480360360208110156103d957600080fd5b50356001600160a01b0316610a2c565b3480156103f557600080fd5b506102436004803603602081101561040c57600080fd5b81019060208101813564010000000081111561042757600080fd5b82018360208201111561043957600080fd5b8035906020019184600183028401116401000000008311171561045b57600080fd5b91908080601f016020809104026020016040519081016040528093929190818152602001838380828437600092019190915250929550610af4945050505050565b3480156104a857600080fd5b50610106600480360360208110156104bf57600080fd5b50356001600160a01b0316610b12565b61050c60405160200180806a14105554d15117d4d313d560aa1b815250600b01905060405160208183030381529060405280519060200120610a18565b156105485760405162461bcd60e51b815260040180806020018281038252602c815260200180610ce3602c913960400191505060405180910390fd5b610550610be3565b565b61058f60405160200180806a14105556915497d4d313d560aa1b815250600b019050604051602081830303815290604052805190602001206109be565b6001600160a01b0316336001600160a01b0316146105de5760405162461bcd60e51b8152600401808060200182810382526030815260200180610c886030913960400191505060405180910390fd5b61061c60405160200180806a14105554d15117d4d313d560aa1b815250600b0190506040516020818303038152906040528051906020012082610c51565b50565b61065c60405160200180806a14105556915497d4d313d560aa1b815250600b019050604051602081830303815290604052805190602001206109be565b6001600160a01b0316336001600160a01b0316146106ab5760405162461bcd60e51b8152600401808060200182810382526030815260200180610c886030913960400191505060405180910390fd5b61055060405160200180806a14105556915497d4d313d560aa1b815250600b019050604051602081830303815290604052805190602001206000610c76565b600061072860405160200180806913d5d3915497d4d313d560b21b815250600a019050604051602081830303815290604052805190602001206109be565b905090565b606061074061073b83610748565b6108a2565b90505b919050565b5490565b600061072860405160200180806a14105556915497d4d313d560aa1b815250600b019050604051602081830303815290604052805190602001206109be565b90565b600061072860405160200180806a14105554d15117d4d313d560aa1b815250600b01905060405160208183030381529060405280519060200120610a18565b6001600160a01b031690565b61081560405160200180806913d5d3915497d4d313d560b21b815250600a019050604051602081830303815290604052805190602001206109be565b6001600160a01b0316336001600160a01b0316146108645760405162461bcd60e51b815260040180806020018281038252602b815260200180610cb8602b913960400191505060405180910390fd5b61061c60405160200180806a14105556915497d4d313d560aa1b815250600b0190506040516020818303038152906040528051906020012082610c76565b6040805160208082528183019092526060918291906020820181803683370190505090506000805b6020811015610920576008810260020a85026001600160f81b031981161561091757808484815181106108f957fe5b60200101906001600160f81b031916908160001a9053506001909201915b506001016108ca565b5060608167ffffffffffffffff8111801561093a57600080fd5b506040519080825280601f01601f191660200182016040528015610965576020820181803683370190505b50905060005b828110156109b55783818151811061097f57fe5b602001015160f81c60f81b82828151811061099657fe5b60200101906001600160f81b031916908160001a90535060010161096b565b50949350505050565b60006107406109cc83610748565b61078b565b600061072860405160200180807212535413115351539510551253d397d4d313d5606a1b8152506013019050604051602081830303815290604052805190602001206109be565b60006001610a2583610748565b1492915050565b610a6860405160200180806913d5d3915497d4d313d560b21b815250600a019050604051602081830303815290604052805190602001206109be565b6001600160a01b0316336001600160a01b031614610ab75760405162461bcd60e51b815260040180806020018281038252602b815260200180610cb8602b913960400191505060405180910390fd5b61061c60405160200180806913d5d3915497d4d313d560b21b815250600a0190506040516020818303038152906040528051906020012082610c76565b80516000908290610b09575060009050610743565b50506020015190565b610b4e60405160200180806913d5d3915497d4d313d560b21b815250600a019050604051602081830303815290604052805190602001206109be565b6001600160a01b0316336001600160a01b031614610b9d5760405162461bcd60e51b815260040180806020018281038252602b815260200180610cb8602b913960400191505060405180910390fd5b61061c60405160200180807212535413115351539510551253d397d4d313d5606a1b81525060130190506040516020818303038152906040528051906020012082610c76565b6000610c2a60405160200180807212535413115351539510551253d397d4d313d5606a1b8152506013019050604051602081830303815290604052805190602001206109be565b905060405136600082376000803683855af43d806000843e818015610c4d578184f35b8184fd5b8015610c6757610c62826001610c83565b610c72565b610c72826000610c83565b5050565b610c7282610c83836107cd565b905556fe5050726f78795061757361626c652e6f6e6c795061757a65723a206d73672073656e646572206e6f74207061757a65725050726f78792e6f6e6c7950726f78794f776e65723a206d73672073656e646572206e6f74206f776e65725050726f78795061757361626c652e6e6f745061757365643a20636f6e747261637420697320706175736564a264697066735822122024a9118df5084e36509b8bf031bde4c2a45987391d784b587041304f05affce664736f6c6343000606003345524332303a207472616e7366657220746f20746865207a65726f206164647265737345524332303a206275726e20616d6f756e7420657863656564732062616c616e636545524332303a20617070726f766520746f20746865207a65726f206164647265737345524332303a207472616e7366657220616d6f756e7420657863656564732062616c616e636550616e44414f3a20556e417574686f72697a6564202d204167656e74206f6e6c7950616e44414f3a20556e417574686f72697a6564202d20436f6e7472616374206f776e6572206f6e6c7945524332303a207472616e7366657220616d6f756e74206578636565647320616c6c6f77616e636545524332303a206275726e20616d6f756e74206578636565647320616c6c6f77616e636545524332303a206275726e2066726f6d20746865207a65726f206164647265737345524332303a207472616e736665722066726f6d20746865207a65726f206164647265737345524332303a20617070726f76652066726f6d20746865207a65726f206164647265737345524332303a2064656372656173656420616c6c6f77616e63652062656c6f77207a65726f50616e44414f3a20496e737572616e636520506f6f6c20616c72656164792065786973747345524332305061757361626c653a20746f6b656e207472616e73666572207768696c6520706175736564a2646970667358221220f2a14f292f8731655ca6264f406cf4be5413ccfe0e2b78b623360112fe962d4b64736f6c6343000606003350616e44414f3a204f6e6c7920696e737572616e636520706f6f6c732063616e20637265617465206e657720746f6b656e73a2646970667358221220e421d80c88e5e7c868b1931ad827f8cb60e372159daa8c48f5ef39749fad635164736f6c63430006060033"
}